:100000000C94CA030C9411040C9411040C94110464
:100010000C9411040C9411040C9411040C9411040C
:100020000C9411040C9411040C9462260C94362741
:100030000C9495200C9411040C9411040C9411044C
:100040000C9411040C9411040C9411040C941104DC
:100050000C9411040C94EC200C9411040C941104D5
:100060000C9411040C9411040C9411040C941104BC
:100070000C9411040C9411040C9411040C941104AC
:100080000C9411040C9411040C9411040C9411049C
:100090000C9411040C9411040C9411040C9411048C
:1000A0000C9411040C9411040C941104165C1E00A1
:1000B0001F0020002100220023002400250026002C
:1000C00027002D002E00310035004C002B001400BD
:1000D0001A000800150017001C0018000C00120080
:1000E00013002F0030002A0000004B0039000400EC
:1000F0001600070009000A000B000D000E000F009B
:10010000330034002800000000004E00E1001D0014
:100110001B00060019000500110010003600370012
:1001200038000000E500520000000151E00000002E
:10013000E200000000002C00000000000000E700CA
:10014000E40000005000510000004F00005C3A0045
:100150003B003C003D003E003F00400041004200AB
:1001600043004400450049004C000100010001002B
:1001700001000100005C010001000100010001001C
:100180000100010001000100000001000100010068
:100190000100010001000100010001000100010057
:1001A0000100010001000000000001000100010049
:1001B0000100010001000100010001000100010037
:1001C000010000000100010000000100010000002A
:1001D000010000000000010000000000000001001C
:1001E000010000000100010000000100005C3A0075
:1001F0003B003C003D003E003F004000410042000B
:1002000043004400450049004C000100010001008A
:1002100001000100005C010001000100010001007B
:1002200001000100010001000000010001000100C7
:1002300001000100010001000100010001000100B6
:1002400001000100010000000000010001000100A8
:100250000100010001000100010001000100010096
:100260000100000001000100000001000100000089
:10027000010000000000010000000000000001007B
:10028000010000000100010000000100005C3A00D4
:100290003B003C003D003E003F004000410042006A
:1002A00043004400450049004C00010001000100EA
:1002B00001000100005C01000100010001000100DB
:1002C0000100010001000100000001000100010027
:1002D0000100010001000100010001000100010016
:1002E0000100010001000000000001000100010008
:1002F00001000100010001000100010001000100F6
:1003000001000000010001000000010001000000E8
:1003100001000000000001000000000000000100DA
:1003200001000000010001000000010000000000C9
:10033000000000002A2B2800000000000000000040
:100340000000000000000029000000002C1E3420E6
:10035000212224342627252E362D3738271E1F200C
:100360002122232425263333362E37381F04050651
:100370000708090A0B0C0D0E0F1011121314151695
:100380001718191A1B1C1D2F3130232D3504050693
:100390000708090A0B0C0D0E0F1011121314151675
:1003A0001718191A1B1C1D2F3130354C0000000086
:1003B000000000000000000000000000000000003D
:1003C000000000000000000000000000000000002D
:1003D0007E0F00D4FFFFFFC700000078FD377A587A
:1003E0005A000004E6D6B4460200210116000000BF
:1003F000742FE5A3E004B401A55D003D8889C654CF
:1004000036C3174FE4DB9BE221762AC865FE0FA0B6
:10041000D37F6CB897BEB029C02D409A1EE09BB523
:1004200033DDEAB6D0FF968AE0E4AE612FB39524BF
:10043000020D3A460890EB240B9311E55F27B40BAD
:1004400009CB3867A17B9B1DC97E0BBFE859434A86
:1004500054DF6C810059922257333B0E5718A46029
:10046000EF83FF96468C41F754F0EDF30959777707
:10047000EC50132F6DF5B99ED3881DC7C4DA10D187
:1004800049828DE4EA1378CC7AB94B93864E13B83F
:10049000797CF3FB6E34F56732FBD79EB03109658A
:1004A00070470A550E2DA93F01AADFF4E0901F29DD
:1004B000AA1971898B3DC1E51263A1EB75B63C07A2
:1004C0007841E203BF2FBC21DD685B1E92ED9EEFF9
:1004D000441AB87BFD8E2442D4F9A812123F16FEAE
:1004E0002552BA49D09B99F0A34D5A27626545A37E
:1004F000F7735B219748B8F8E8CD27594DE6E046F9
:10050000CBBFE892055E7E80B1D9C4A32BE69306EB
:1005100095F9484A1663B05F7242BFAFF10021EF10
:1005200097B7D89B9FA623E11E7AC8A20231B31ABF
:10053000A4F5ECF458DDAE1E5B751357B1493BE0F2
:10054000EC68BBE1A88AAFE5BD79D7530C83BA2428
:10055000A3FAA48066EF7217082ADFF2CA76124A5D
:100560005D2F3C1A42325E51125B3BDD2EE659FA9A
:1005700094463B1A72BAB949EC049DADE59612D186
:1005800031AC809ACE338AD00CD027E795EAEEA41E
:10059000F59264CC7C2BF307B74FE70BB9681700D3
:1005A00000000000E8014A833707A2600001C10390
:1005B000B50900003BE63C7BB1C467FB02000000CC
:1005C0000004595A1C037600690061006C003A006F
:1005D00066003600340063003200620033006300BE
:1005E00000000C034100660074006500720000000A
:1005F00012035A00540042006F0061007200640050
:10060000730000000403090409025B00030100A059
:10061000FA09040000010301010009211101000190
:100620002240000705810308000A090401000203B3
:1006300000000009211101000122220007058203A8
:100640002000010705030320000109040200010343
:1006500000000009211101000122BC0007058403EC
:1006600020000A1201100100000008270901000102
:1006700000010203010660FF0961A1010962150082
:1006800026FF009520750881020963150026FF00EA
:10069000952075089102C005010902A10185020992
:1006A00001A1000509190129051500250195057508
:1006B0000181029501750381010501093009311598
:1006C00081257F95027508810609381581257F955A
:1006D0000175088106050C0A38021581257F9501F0
:1006E00075088106C0C005010980A10185031901B3
:1006F0002AB700150126B700950175108100C005C5
:100700000C0901A101850419012AA002150126A0E6
:1007100002950175108100C005010906A10185053A
:10072000050719E029E715002501950875018102E3
:100730000507190029EF1500250195F075018102C3
:1007400005081901290595057501910295017503A3
:100750009101C005010906A101050719E029E71566
:100760000025019508750181029501750881010533
:1007700007190029FF150026FF009506750881005E
:100780000508190129059505750191029501750363
:100790009101C00011241FBECFEFDAE0DEBFCDBF54
:1007A00004B603FE27C08091D5029091D602A09195
:1007B000D702B091D8028730904BA740B04BD1F40C
:1007C0001092D5021092D6021092D7021092D8023F
:1007D00014BE84B7877F84BF0FB6F894A895809124
:1007E0006000886180936000109260000FBEE0E0BE
:1007F000F8E3099511E0A0E0B1E0E2E4F3E502C01E
:1008000005900D92A63BB107D9F722E0A6EBB1E027
:1008100001C01D92A53DB207E1F70E941A230C9476
:100820006F290C94000081E0089581E008950C94F4
:10083000150408950C9419041F93CF93DF9300D0EF
:1008400000D00F92CDB7DEB749835A836B833091C6
:10085000F00189819A8131111DC06623B9F02223EC
:10086000A9F00E948F1D182F682F89819A810E94FC
:100870003C1D69817A81812F0F900F900F900F900E
:100880000F90DF91CF911F910C9498100E94681DDA
:10089000182FEFCF0E948F1D69817A81EDCFFC0167
:1008A000262F408151816281738184810C941C04C4
:1008B000CF93DF93EC0160E00E944F04BE01DF9113
:1008C000CF910C941A048F929F92AF92BF92CF92C5
:1008D000DF92EF92FF920F931F936B017C0181E0F7
:1008E00090E0A0E0B0E04C015D0104C0880C991CD0
:1008F000AA1CBB1C4A95D2F7B501A4014C015D01AD
:1009000004C0880C991CAA1CBB1C2A95D2F7482944
:1009100059296A297B2904C0880F991FAA1FBB1F68
:100920000A95D2F78A019B010C211D212E213F211E
:10093000041715072607370789F48C299D29AE2946
:10094000BF29BC01CD011F910F91FF90EF90DF9067
:10095000CF90BF90AF909F908F9008958095909585
:10096000A095B0958C219D21AE21BF21EACF0F9398
:10097000382F262F60915B0270915C0280915D029E
:1009800090915E02042F432F0E9463040F910C94F8
:100990007A1C0E943B210E94DB1E811102C00E9432
:1009A0007F1F0C9403080C94060808950E94A61853
:1009B0000E94D5042FEF84E39CE0215080409040BA
:1009C000E1F700C000000C9410210F931F93CF9308
:1009D000DF93EC0161E00E944F048C01BE010E9494
:1009E0008D0C882359F1BE01C8010E941704882389
:1009F00029F1BE01C8010E94DE118823F9F0BE0171
:100A0000C8010E9430128823C9F0BE01C8010E94AB
:100A10005313882399F08A81882339F001158CE5D6
:100A2000180751F00E3D1C4579F0CE01DF91CF91B2
:100A30001F910F910C9413040E94D60480E0DF9163
:100A4000CF911F910F9108950E947F1FF7CFDF92E2
:100A5000EF92FF920F931F93CF93DF93E82FF0E075
:100A6000E45DFC4FD490282F26952695269530E0FE
:100A7000F901E453FC4F0491877010E0082E02C086
:100A8000159507950A94E2F701701127F901E454CE
:100A9000FC4FE490F12C082E02C0F594E7940A94E0
:100AA000E2F791E0E922FF24F901E455FC4FC491FB
:100AB000D0E002C0D595C7958A95E2F7C170DD27D1
:100AC0000115110519F081EE0E942415E114F104BD
:100AD00019F086EE0E9424158D2D0E942316EF2812
:100AE00019F086EE0E94B615012B19F081EE0E94D6
:100AF000B615CD2B51F08CE2DF91CF911F910F9164
:100B0000FF90EF90DF900C942316DF91CF911F910F
:100B10000F91FF90EF90DF900895EF92FF920F9367
:100B20001F93CF93DF93EC01162F0AE0888188236F
:100B300009F454C0813009F04EC08981813099F4A4
:100B40007E0122E0E20EF11C8A810E942316E70159
:100B50002196812F815050F3EFE9FFE03197F1F7B3
:100B600000C00000F7CF823041F47E0182E0E80E41
:100B7000F11C8A810E942415EACF833041F47E0162
:100B8000E2E0EE0EF11C8A810E94B615E0CF8430BF
:100B900011F02196DDCF2A81229690E080E0AE010F
:100BA0004F5F5F4F2053330B2A30310548F00197D8
:100BB00078F2EFE9FFE03197F1F700C00000F7CFDE
:100BC000089FB001099F700D1124C901860F971F5E
:100BD0002981EA01E4CF0E942705BACFDF91CF91A6
:100BE0001F910F91FF90EF90089560E00C948D0598
:100BF00008950C94F80581E008950C94FB05CF93BB
:100C0000C82F0E94F9058C2FCF910C94FD0590E020
:100C100080E008950895FC01EE0FFF1FE452FC4FA1
:100C2000859194910895CF93DF930E9498100E942C
:100C30002807EC01811520E5920708F042C08115D4
:100C400030E4930708F0BDC0883E910528F5803E4A
:100C5000910508F09DC0883A910588F4853A910580
:100C600008F08FC08130910509F492C0009709F413
:100C70008FC0049708F08CC0D0E0C0E089C08F3BE3
:100C8000910508F489C0805C9109C03CD105A0F3AE
:100C90000E940B06EC017CC08115904250F4C115F6
:100CA00081E0D80708F074C0C03FD10528F3D065B3
:100CB0006FC0C11590E3D90708F079C0CE019F70CD
:100CC000E7CF811525E5920758F5811534E593079F
:100CD00008F0A6C0811542E5940750F4C11581E5DE
:100CE000D80708F471C0DC2FCC27C16FD06A50C080
:100CF000982F969596959E0123703327C115D3455D
:100D000008F07FC0C1E0D0E002C0CC0FDD1F2A9503
:100D1000E2F720E2929FC0011124C82BD92B6FC0AB
:100D2000C11589E5D807A8F4C11598E5D90708F0D9
:100D30007CC0C11526E5D20708F09ECF8C2F0E94FB
:100D4000BF07C82FD0E0DC2FCC27CC27DF71D062C3
:100D50001FC0C1153AE5D30708F46CC0CE01905608
:100D60008115904208F088CF8D2F8F710E94BF07A8
:100D700090E0982F882788279F719C012C2BE901F0
:100D8000E6CFC55AD0E0C35BDE4FC881D0E0D06467
:100D9000CE01DF91CF910895C85AD0E0CC0FDD1F6E
:100DA000C15EDE4F0990D881C02DD464F1CFCE0151
:100DB0009927D3FF03C0EC01D86CEACFEC01D06CCB
:100DC000E7CFDF70D06AE4CFCE01E4E09695879557
:100DD000EA95E1F783702C2F26952695237090E2F3
:100DE000299F90011124382B8C2F8370C1E0D0E013
:100DF00002C0CC0FDD1F8A95E2F7C22BD32BDC6833
:100E0000C7CFC1E0D0E002C0CC0FDD1F2A95E2F7CA
:100E100030E2939FC0011124C82BD92BDA68B8CFD8
:100E2000D82FCC27C46FD06AB3CFDC2FCC27C06FAC
:100E3000D06AAECF8C2F8F700E94BF0734E0D6955A
:100E4000C7953A95E1F7CF709C2FEC01D069A0CF00
:100E500082389105B1F1B0F48133910509F475C080
:100E600048F48932910509F469C08A32910509F480
:100E700073C008958533910509F459C089339105EC
:100E800001F10895833E9105A9F138F4803E910562
:100E9000F9F0823E910549F10895863E9105A9F148
:100EA000873E9105C9F1843E910519F52091C7024D
:100EB00021FF1FC08091C60284FD14C087EE90E020
:100EC00008952091C6022370A1F080EE90E008956D
:100ED0002091C60220FD47C03091C70230FF09C0F3
:100EE00024FF44C090E080E004C02091C60222FDAF
:100EF000F7CF08952091C60222FD3BC03091C70272
:100F000030FDE3CF24FFF5CFEDCF2091C60223FFC4
:100F1000F0CF24FDE7CFD2CF2091C60223FD2CC015
:100F20003091C70231FFEECF84EE90E0089520911A
:100F3000C60225FFDECF89E290E008952091C60227
:100F400025FFD7CF85E390E008952091C60226FFC4
:100F5000D0CF8AE290E008952091C60226FFC9CF43
:100F600081E390E0089589E390E0089583EE90E0B6
:100F7000089582EE90E0089586EE90E008959091B5
:100F8000C60292FF06C0282F28712830F9F4877F07
:100F9000846093FF06C0282F28712831F1F4877EE2
:100FA00084612091C70220FF06C0382F3871383085
:100FB000D9F4877F816021FF06C0282F287128314E
:100FC000D1F4877E816194FD877E0895282F247156
:100FD0002430F9F68B7F8860DCCF282F24712431F0
:100FE00001F78B7E8861DDCF382F3171313019F7F1
:100FF0008E7F8860E0CF282F2171213121F78E7EEE
:101000008861E1CF08950C94020808950C940508B6
:10101000E82FF0E0EE0FFF1FEA54FD4F8081918131
:101020000895089580EA8A95F1F7089500C008951B
:101030000C941208F894E82FE295EF70F0E031A1DB
:10104000282F2F7081E090E001C0880F2A95EAF7E1
:10105000982F9095932391A392A1892B82A37894A2
:1010600008950F931F93CF93DF9383E30E941A0891
:1010700086EF0E941A0885EF0E941A0885E90E94EF
:101080001A0882E30E941A08C0E5D1E000E611E0E8
:1010900089910E941A080C171D07D1F71092AD0212
:1010A0001092AC021092B7021092B6021092AF02E8
:1010B0001092AE021092B9021092B8021092B102D0
:1010C0001092B0021092BB021092BA021092B302B8
:1010D0001092B2021092BD021092BC021092B502A0
:1010E0001092B4021092BF021092BE0285E00E94DC
:1010F0000309DF91CF911F910F910C94C904AF9216
:10110000BF92CF92DF92EF92FF920F931F93CF93F4
:10111000DF9300E611E0CCEAD2E0C12CD12CEE2422
:10112000E394F12CF80181918F01F894E82FE29576
:10113000EF70F0E021A18F70A70102C0440F551F8E
:101140008A95E2F7CA01922F982B91A392A18095DC
:10115000892382A378940E941608E0E5F1E030E04C
:1011600020E0B12CA12C4191A42FA295AF70B0E04A
:1011700090968C9190E04F7002C0959587954A9516
:10118000E2F780FD3BC0C701022E02C0880F991F05
:101190000A94E2F7A82AB92A2F5F3F4F2031310580
:1011A00011F7F801319780810E941A0854E0C512A6
:1011B0000E94180888819981A816B90611F1B98290
:1011C000A88281E0D82AC394229685E0C812AACFCB
:1011D0002D2D45E066EB72E08CEA92E00E94040956
:1011E0000E94D3048D2DDF91CF911F910F91FF901D
:1011F000EF90DF90CF90BF90AF90089590E080E0A7
:10120000C9CF80E0DFCF0895FF920F931F93CF9354
:10121000DF93F82E092F162FD72FC42F222349F042
:1012200081E08093BA010E94C5209093B901809318
:10123000B8018091BA018823A1F08091B801909102
:10124000B9010E94DD20069760F0EF2DF02FA12F4D
:10125000BD2F90E080E0D0E08C179D0744F0109205
:10126000BA01DF91CF911F910F91FF9008952191C5
:1012700031912D933D930196EFCF8091C10180FF75
:1012800012C06091050185E0689FB0011124759539
:1012900067957595679560387105A8F561157105B5
:1012A000A1F1862F089581FF09C06091050185E0B5
:1012B000689FB001112475956795EDCF6091050188
:1012C00082FD0AC08091C0018823D1F09091040171
:1012D00060910501891728F085E0689FB00111240D
:1012E000DACF869FB001112485E0869F9001879F09
:1012F000300D1124692F70E0C9010E94E828CBCF7E
:1013000065E070E0CECF8FE7089581E00895809189
:10131000C10180FF0CC06091010170E07595679577
:10132000759567956115710549F1862F089581FFBF
:1013300006C06091010170E075956795F3CF6091EB
:10134000010182FD0BC09091BF019923A1F0609132
:10135000000180910101961738F0682F70E0603825
:10136000710500F38FE70895899FC001112470E093
:101370000E94E828F4CF61E070E0D7CF81E00895C3
:10138000803F31F40E943D0981958093C501089505
:10139000813F19F40E943D09F8CF823F31F40E9449
:1013A0003D0981958093C4010895833F19F40E94FB
:1013B0003D09F8CF893F29F40E9487098093C6012F
:1013C00008958A3F21F40E9487098195F7CF8B3FCA
:1013D00031F40E94870981958093C70108958C3F5D
:1013E00019F40E948709F8CF843F31F48091C3013A
:1013F00081608093C3010895853F21F48091C301EA
:101400008260F7CF863F21F48091C3018460F1CFE1
:10141000873F21F48091C3018860EBCF883F21F49E
:101420008091C3018061E5CF8D3F31F48091C1018E
:1014300081608093C10108958E3F21F48091C101A4
:101440008260F7CF8F3FB9F78091C1018460F1CFFF
:101450009091C401803F59F48091C50187FF0DC070
:101460001092C50191110BC01092C00108C0813FBC
:1014700081F48091C50118169CF3992381F0809125
:10148000C6019091C701892B09F064C01092BF0179
:101490000895823F49F497FFF0CF1092C4018091E4
:1014A000C5018111ECCFE0CF833F19F41916ACF3DD
:1014B000E4CF2091C601893F29F41216F4F6109268
:1014C000C601DBCF8A3F19F427FFD7CFF8CF209191
:1014D000C7018B3F29F427FFD0CF1092C701CDCF92
:1014E0008C3F19F41216CCF3C8CF843F31F48091AD
:1014F000C3018E7F8093C301C0CF853F21F48091CB
:10150000C3018D7FF7CF863F21F48091C3018B7F8C
:10151000F1CF873F21F48091C301877FEBCF883FD4
:1015200021F48091C3018F7EE5CF8D3F31F480910E
:10153000C1018E7F8093C101A0CF8E3F21F48091A5
:10154000C1018D7FF7CF8F3F09F097CF8091C10107
:101550008B7FF0CF08950E94C5209C019091C4011B
:101560008091C501982B21F03093BE012093BD01DD
:101570009091C6018091C701982B21F03093BC0156
:101580002093BB0182EC91E00C94A813EF92FF92A0
:101590000F931F93CF93DF9300D000D000D0CDB72F
:1015A000DEB786E0E2ECF1E0DE01119601900D92EB
:1015B0008A95E1F7E090C401F090C5010091C60161
:1015C0001091C7011092C4011092C5011092C6017A
:1015D0001092C7018E2D8F2991F08091BD019091BD
:1015E000BE010E94DD20AC019091C001992309F455
:1015F0003FC0809106018417150608F447C0802F6C
:10160000812B91F08091BB019091BC010E94DD2063
:10161000AC019091BF01992309F477C08091020138
:101620008417150608F47FC08091C4019091C5010C
:10163000892B9091C601892B9091C701892B11F0BC
:101640000E94AB0A86E0FE013196A2ECB1E0019067
:101650000D928A95E1F726960FB6F894DEBF0FBE7D
:10166000CDBFDF91CF911F910F91FF90EF90089523
:10167000209107018AE0289F900111242417350743
:1016800008F0BDCF9F5F9093C00102C09F3FD1F78C
:10169000EE2059F00E943D099FEF1E140CF491E0DA
:1016A000899F802D11248093C401FF2059F00E944E
:1016B0003D099FEF1F140CF491E0899F802D1124A8
:1016C0008093C5013091C401332309F498CF209150
:1016D000C501222309F493CF45EB3403C001112443
:1016E000992359F09093C40145EB240390011124F0
:1016F000332339F03093C50182CF81E08093C40158
:10170000F3CF81E08093C5017ACF209103018AE075
:10171000289F900111242417350708F085CF9F5F7B
:101720009093BF0102C09F3FD1F7002359F00E9460
:1017300087099FEF10160CF491E0899F802D1124EA
:101740008093C601112359F00E9487099FEF11165B
:101750000CF491E0899F802D11248093C701309172
:10176000C601332309F460CF2091C701222309F475
:101770005BCF45EB3403C0011124992359F09093BA
:10178000C60145EB240390011124332339F0309333
:10179000C7014ACF81E08093C601F3CF81E08093F7
:1017A000C70142CF86E0E2ECF1E0DF011D928A95AD
:1017B000E9F71092C0011092BF011092C101089583
:1017C0002198299A2098289A83B186958170189932
:1017D00005C090E0892B8093CA01089592E0FACF6A
:1017E000E091CA01EE0FEE0FE093CA0123B121FB95
:1017F000882780F9189937C020E0822BE82BE093E6
:10180000CA01EF70F0E0EB59FE4F80819091C90161
:10181000890F8093C90120E0843054F08091C80181
:101820008F5F8093C80160E080E00E94E70E21E0B6
:101830008091C9018D3F54F48091C80181508093FB
:10184000C80161E080E00E94E70E21E08091C901BB
:10185000082E000C990B64E070E00E94E828809349
:10186000C901822F089522E030E0C7CF82E290E0E4
:101870000E942D29873589F483E290E00E942D296A
:10188000823859F484E290E00E942D2991E0843757
:1018900009F090E0892F8170089580E0FCCFCF930C
:1018A000C82F6FEF811167E582E290E00E943B292B
:1018B0006FEFC11162E883E290E00E943B296FEF75
:1018C000C11164E784E290E0CF910C943B2980E061
:1018D0000E944F0C0C94D51E089585E290E00E9462
:1018E0002D29682F70E090E080E0089585E290E077
:1018F0000C943B290E946C0C0E94360C81110CC088
:1019000060E070E0CB010E94760C0E94E60F0E941E
:101910000B1181E00C944F0C0895CF93FB01C28111
:10192000CC2309F19C0122513F452031310520F59E
:1019300082510E941B11C0E08C2FCF91089581E04D
:101940000E94A01C43E062E081E00E94B704F3CF54
:1019500081E00E94C11C43E062E081E00E94B70484
:10196000EBCF82E0F6CF8031FFE59F0789F381312D
:101970009F45B9F3C1E0E0CF8031EFE59E07F9F272
:1019800081319F45C9F682E0DBCF2FEFFC01208338
:1019900008951F93CF93DF93EC01162F8881209138
:1019A000CD013091CE01232B69F08E3FF1F5898175
:1019B000833018F085508330C0F5612FCE010E942E
:1019C000ED0D33C08D3009F474C0C0F4843009F4D7
:1019D00057C048F4823081F108F046C0813011F1DF
:1019E0008FEF888322C0863009F460C008F453C0AA
:1019F0008C30B1F70E94B410898317C0813109F48B
:101A000089C040F48F3009F46DC008F45AC00E94B8
:101A10000B110BC0833109F491C008F47EC08E3FD6
:101A2000F9F6CBCF198289E08A83612FCE01DF914D
:101A3000CF911F910C940F228981823069F08330FD
:101A4000A1F3813061F40E94D1200E9402296A83AF
:101A50007B838C839D83E9CF0E946D0CF6CF612F31
:101A6000CE010E94C50CE1CF89818230C1F76A8125
:101A70007B818C819D810E9402290E94760CD5CFAA
:101A80004B816A8189810E94400F98278927982776
:101A90009D838C83CACF2C813D8132272327322717
:101AA0004B816A8189810E94620FBFCF0E94E60F3D
:101AB000BCCF0E94B6109827892798279A838983DC
:101AC000B4CF6B8170E06D31710508F0AECF8981C4
:101AD0009A81AE014C5F5F4F9827892798270E9413
:101AE000B910A3CF8091080190910901892B09F4C5
:101AF0009CCF6B8170E06D31710508F096CF8981C4
:101B00009A81AE014C5F5F4F9827892798270E94E2
:101B1000E0108BCF0E942D0F6FCF6B8170E06D3185
:101B2000710508F082CF89819A81AE014C5F5F4FC9
:101B30009827892798270E943E1077CF6B8170E005
:101B40006D31710508F071CF89819A81AE014C5FCA
:101B50005F4F9827892798270E94641066CF1F93AC
:101B6000CF93DF93CDB7DEB72A970FB6F894DEBFD9
:101B70000FBECDBF9093C1028093C0021EEF1E83A3
:101B80001F8381E088870E94C5208160782F9A8713
:101B900089874E815F8168858A850E94ED148FE375
:101BA0009CE90197F1F700C0000019831A831B829A
:101BB0000E94C5208160782F9D838C8349815A8142
:101BC0006B818D812A960FB6F894DEBF0FBECDBF14
:101BD000DF91CF911F910C94ED14EF92FF920F9330
:101BE0001F93CF93DF93CDB7DEB728970FB6F89446
:101BF000DEBF0FBECDBF8C01603219F5DC0111963E
:101C0000EC911197E830E8F4F0E0EF58F64D0C94C1
:101C1000FC2888E0E7E1F1E0DE01119601900D92E9
:101C20008A95E1F781E0F8018083118212821382A4
:101C300088E0FE013196D801149601900D928A95A4
:101C4000E1F728960FB6F894DEBF0FBECDBFDF9147
:101C5000CF911F910F91FF90EF90089588EE8C9394
:101C600081E011968C93119712961C9212971396FD
:101C70001C92E7CFFC018381682F70E0762F6627E6
:101C80008281860F972F911D092E000CAA0BBB0B8A
:101C900025E0880F991FAA1FBB1F2A95D1F7AC0119
:101CA000BD01405E5F4F6F4F7F4F481759076A076E
:101CB0007B0738F2883EF1E09F07A105B10508F6E1
:101CC000493E21E052076105710520F048EE51E0E0
:101CD00060E070E0481B590BBC0164527C4FC801A6
:101CE00028960FB6F894DEBF0FBECDBFDF91CF911F
:101CF0001F910F91FF90EF900C941D291296FC906C
:101D000012971396EC9040E06E2D8F2D0E948A0F53
:101D1000982789279827F8019183808341E06E2DC9
:101D20008F2D0E948A0F982789279827D80113960C
:101D30009C938E93129785CFFC01258136813227A3
:101D40002327322744816381828128960FB6F89435
:101D5000DEBF0FBECDBFDF91CF911F910F91FF90DE
:101D6000EF900C94B50F40E250E06FEF70E00E94EE
:101D7000262980910801D8018C938091CD0111967C
:101D80008C935FCF81E090E09093CE018093CD0162
:101D900082E390E09093CC018093CB0128960FB61C
:101DA000F894DEBF0FBECDBFDF91CF911F910F9191
:101DB000FF90EF900C94C52080910801F80180837A
:101DC0008091CD0181838091CB0182833ACFCF92E4
:101DD000DF92EF92FF920F931F93CF93DF93182F11
:101DE000062FC0905B02D0905C02E0905D02F09004
:101DF0005E0280915F0290916002A0916102B091B9
:101E00006202C82AD92AEA2AFB2ACFE1D0E0D70108
:101E1000C6010C2E04C0B695A795979587950A9490
:101E2000D2F780FF12C0402F612F8C2F0E948A0FA3
:101E30008130910551F0DF91CF911F910F91FF906B
:101E4000EF90DF90CF900C94AF0D219700F7402FCB
:101E5000612F80E00E948A0FEECF84E0089590E227
:101E6000699FB001112450E0440F551F640F751F86
:101E700090EA899F600D711D1124CB01869608950B
:101E80000F931F93CF93DF938430C8F46530B8F479
:101E90004031A8F40E942F0F8C010E942D29C82FD9
:101EA000D0E0DC2FCC27C80101960E942D299E018D
:101EB000282BC901DF91CF911F910F91089590E0D8
:101EC00080E0F8CF0F931F93CF93DF93E901843025
:101ED000E0F46530D0F44031C0F421153C4531F4D4
:101EE0002091080130910901232B79F00E942F0FD6
:101EF0008C016D2F0E943B296C2FC8010196DF9148
:101F0000CF911F910F910C943B29DF91CF911F919D
:101F10000F9108950F931F93CF93DF93843010F5A3
:101F2000611120C04230F0F424E0829F800111242E
:101F300050E0440F551F040F151F0A551D4FC801CF
:101F40000E942D29C82FD0E0DC2FCC27C801019694
:101F50000E942D299E01282BC901DF91CF911F914D
:101F60000F91089590E080E0F8CF0F931F93CF93E7
:101F7000DF938901843028F5611123C0423008F5D0
:101F800021153C4531F42091080130910901232BA2
:101F9000C1F094E0899FE001112450E0440F551FE7
:101FA000C40FD51FCA55DD4F612FCE010E943B29BA
:101FB000602FCE010196DF91CF911F910F910C946C
:101FC0003B29DF91CF911F910F9108958F929F929E
:101FD000AF92BF92CF92DF92EF92FF921F93CF9377
:101FE000DF93809008019090090181E090E0909348
:101FF0000901809308018CEAC82E80E0D82EC0E049
:102000007601D0E014C0F50125913491412F6D2F58
:102010008C2F0E94620F82E0A80EB11C1F5F10314E
:1020200091F780E2E80EF11CDF5FD53019F057011F
:1020300010E0E9CF21E030E040E060E08C2F0E942A
:10204000B50F21E030E041E060E08C2F0E94B50F39
:10205000CF5F80EAC80ED11CC43091F6909209017E
:1020600080920801DF91CF911F91FF90EF90DF9058
:10207000CF90BF90AF909F908F900895EF92FF9276
:102080000F931F93CF93DF93EC018A017C01E60E3F
:10209000F71ECE018696CE15DF0539F4DF91CF917C
:1020A0001F910F91FF90EF900895C03822E0D20762
:1020B00040F40E942D29F80180830F5F1F4F219665
:1020C000E8CFF8011082F9CFCF92DF92EF92FF9222
:1020D0000F931F93CF93DF938C016A018038924056
:1020E00080F480E892E0801B910B8617970748F0F8
:1020F0007801E60EF71EE801CE018696CE15DF05C3
:1021000049F4DF91CF911F910F91FF90EF90DF90F5
:10211000CF900895C03822E0D20740F4FE01E01BC2
:10212000F10BEC0DFD1D60810E943B292196E4CF4F
:10213000462F2091CD013091CE01232B91F47E3F8B
:1021400039F46E3F71F48091C0029091C1020895FC
:10215000843038F4753028F4603118F4672F0C940B
:10216000400F90E080E0089580E108958AE491E0D6
:102170000895EF92FF920F931F93CF93DF93EC019B
:102180008A017C01E60EF71ECE018A549D4FCE15C2
:10219000DF0539F4DF91CF911F910F91FF90EF9000
:1021A0000895CA3421E0D20740F40E942D29F80195
:1021B00080830F5F1F4F2196E7CFF8011082F9CF80
:1021C000CF92DF92EF92FF920F931F93CF93DF9303
:1021D0007C016A018C01060F171FEC01CE018A54A5
:1021E0009D4FC017D10749F4DF91CF911F910F91F7
:1021F000FF90EF90DF90CF900895CA3421E0D2078E
:1022000040F4FE01EE19FF09EC0DFD1D60810E94F6
:102210003B292196E3CFCF93DF93C6EBD2E060E07A
:10222000CE010E943B292196C11584E0D807B9F759
:10223000DF91CF910895DF92EF92FF920F931F935A
:10224000CF93DF9300D000D0CDB7DEB7F82E8FE06C
:102250008F1540F08FEF93E00E942D2906EB12E0DE
:102260008823C1F00F900F900F900F90DF91CF91C6
:102270001F910F91FF90EF90DF900895011584E07A
:10228000180781F3C8010E942D29811101C0FA9419
:102290000F5F1F4FF110F2CF19821A821B821C822E
:1022A000DD24D39478018FEFE81AF80AC8010E9460
:1022B0002D2989831A828823A9F29FEF980F9330E2
:1022C00078F48A83D9820E5F1F4FC7010E942D299F
:1022D0008B83882339F2CE0101960E94F505E2CF67
:1022E0008701F9CF0F931F93CF93DF93C42FD22F82
:1022F000FC0182818823C9F04093D1010E94C5204E
:102300009093D0018093CF0180E28C0F883008F049
:1023100050C0C77081E001C0880FCA95EAF7DF910D
:10232000CF911F910F910C942B161091D101141382
:1023300035C08091CF019091D0010E94DD20883C72
:10234000910560F5C0E2CD0F1D17B9F080E2810F55
:10235000883040F4177081E001C0880F1A95EAF7C1
:102360000E943216C83048F481E09D2F977001C05A
:10237000880F9A95EAF70E942B16802F0E94231649
:10238000C830B8F4D77081E001C0880FDA95EAF759
:10239000DF91CF911F910F910C94321680E28C0F38
:1023A000883038F4C77081E001C0880FCA95EAF719
:1023B000EFCFDF91CF911F910F9108950F939C0163
:1023C000CB01233F4CE5340759F1A8F4283DFCE547
:1023D0003F0701F1293D4CE53407D1F1273D3C454C
:1023E00091F406E221EE41EE67ED7CE50E94721168
:1023F00080E00F910895253FFCE53F07E9F0B0F03C
:10240000263F3C45F9F0FC018281882339F1109286
:10241000D101EFCF07E225EE45EE68ED7CE5E6CF92
:1024200006E221EE40EE63EF7CE5E0CF07E225EE29
:1024300044EE64EF7CE5DACF06E221EE42EE65EF92
:102440007CE5D4CF07E225EE46EE66EF7CE5CECF05
:1024500008E221E045EE69ED7CE5C8CF81E0C9CF17
:10246000CF93DF93EC01FB018281882309F419C12A
:10247000C230FCE5DF07C0F1C6319CE5D90730F07A
:102480009E012A5F3C452930310570F50E94EE1E01
:102490009093C7028093C602C031ECE5DE0709F4D1
:1024A000CFC008F05BC0C8308CE5D80709F4B6C0CF
:1024B00088F5C430ECE5DE0709F4A8C0C0F4C230EA
:1024C0008CE5D80709F49CC08091C6028260C330B5
:1024D000DC4509F498C08091C6029091C7020E9421
:1024E000FC1E0E94A61880E0DF91CF910895809194
:1024F000C6028061C630ECE5DE0709F484C0809135
:10250000C6028860C730DC4508F47DC08091C602F1
:10251000806279C0CC308CE5D80709F489C070F4AA
:102520008091C6028C60CA30ECE5DE0709F46BC00E
:1025300008F478C08091C6028E7F65C0CE308CE5ED
:10254000D80709F479C08091C6028B7FCF30DC4573
:1025500008F459C08091C6028F7E55C0CB3FECE590
:10256000DE0709F457C030F5C3318CE5D80709F40C
:102570006FC078F4C131ECE5DE0709F465C0C23103
:10258000DC4509F0A8CF0E94A6188091C6028F777B
:102590003AC0C5318CE5D80709F462C008F476C0AA
:1025A0008091C7028160CA3FDC4509F094CF8093D7
:1025B000C70291CFCF3FFCE5DF0709F44DC088F497
:1025C0008091C7028D7FCD3F9CE5D90781F3809133
:1025D000C7028E7FCE3FDC4550F38091C7028360F7
:1025E000E6CFC130FDE5DF0709F459C008F444C067
:1025F00080E0C230DD4509F06ECF0E94811F6BCFB5
:102600008091C60281608093C60265CF8091C60228
:102610008460F9CF8091C7028260C9CF8091C602E1
:102620008064F1CF0E94A6188091C6028068EBCF2B
:102630008091C6028D7FE7CF8091C602877FE3CF6E
:102640008091C6028F7DDFCF8091C6028F7BDBCF6A
:102650008091C602837FD7CF8091C7028C7FA7CF9E
:102660008091C60282FB992790F921E0922790FB86
:1026700082F990FB83F9C7CF8091C702982F90957C
:1026800091708E7F892B90FB81F991CF0E94A618C3
:102690009091C602892F97FB87F98058B4CF81E0CB
:1026A000ACCF81E021CFCF93DF93EB0186319C4506
:1026B00011F50E94241E9A81992399F08A7A91E05B
:1026C00009F490E09093D201811109C089E20E943F
:1026D000FF1D0E94701E80E0DF91CF91089585E379
:1026E000F6CF8091D201811104C089E20E94061EBA
:1026F000F0CF85E3FBCF81E0EFCF9093D8018093BB
:10270000D7010895E091D701F091D801309721F0D9
:102710000190F081E02D099480E00895E091D701C7
:10272000F091D801309799F020911601222359F0A9
:102730002091C60227FF07C0DC012C9111962C9333
:10274000119725E02C930280F381E02D09940895E0
:10275000E091D701F091D801309739F022E0DC0107
:102760002C930480F581E02D099408952091D501E2
:102770003091D6012817390771F09093D6018093D4
:10278000D501E091D701F091D801309721F0068072
:10279000F781E02D099408952091D3013091D4015F
:1027A0002817390771F09093D4018093D301E091F9
:1027B000D701F091D801309721F00084F185E02D08
:1027C000099408950E94D1206093EC017093ED016B
:1027D0008093EE019093EF016093E8017093E9011B
:1027E0008093EA019093EB0108950E94D1206093B9
:1027F000EC017093ED018093EE019093EF016093F3
:10280000E4017093E5018093E6019093E701089558
:1028100085B7806885BF85B7806885BF08950895AE
:1028200008950C940F1408950C9413140E94081426
:1028300083ED9EE10E9434210E9410140C94111427
:1028400081E008950C942014089508950E94BC20FE
:102850000E9431080E947A0C0E944F210E94E00BD6
:102860000C9414148F929F92AF92BF92CF92DF92EA
:10287000EF92FF920F931F93CF93DF93CDB7DEB705
:102880002A970FB6F894DEBF0FBECDBF0E94241466
:102890000E9425140E947F0881110E94E2135AEDC4
:1028A000852E51E0952E10E000E0A02E802F0E9492
:1028B00008086C01F401E190F1904F01E816F90667
:1028C00009F461C08091880281FD0E941108C7014E
:1028D0008C259D25B12CEE24E394F12C9C012E2116
:1028E0003F21232B09F449C00E9422148823A9F018
:1028F000BE82AF82CE20DF2081E0CD2809F480E0C7
:1029000088870E94C5208160782F9A8789874E81A9
:102910005F8168858A850E94ED14000F111FF80100
:10292000E652FE4F80819181E826F926F182E0820D
:102930000E94F00B81110E94F5130E94C60A0E94AA
:1029400082139091D9018917A9F10E948213809373
:10295000D9012A960FB6F894DEBF0FBECDBFDF9126
:10296000CF911F910F91FF90EF90DF90CF90BF908C
:10297000AF909F908F900C94FF05B394EE0CFF1CCA
:10298000F0E1BF12ABCF0F5F1F4F0530110509F00B
:102990008CCF8FEF89838A831B820E94C520816040
:1029A000782F9D838C8349815A816B818D810E9410
:1029B000ED14BECF2A960FB6F894DEBF0FBECDBF82
:1029C000DF91CF911F910F91FF90EF90DF90CF900B
:1029D000BF90AF909F908F900895DF92EF92FF92FB
:1029E0000F931F93CF93DF93CDB7DEB72B970FB61F
:1029F000F894DEBF0FBECDBF7A878B87F42E052FEC
:102A0000162FE72ED82E61110E94441E1E821D82B1
:102A10007E2DEC82DD824F2D502F612F8D2D9E81DA
:102A20002B960FB6F894DEBF0FBECDBFDF91CF91CE
:102A30001F910F91FF90EF90DF900C941C1BFC01F5
:102A4000808191810C94D11DCF93C82F882309F4E4
:102A50008BC08238C1F40E94821381FD85C089E356
:102A60000E94FF1D0E94701E2FEF81EE94E0215006
:102A700080409040E1F700C0000089E30E94061EFC
:102A8000CF910C94701E8338A1F40E94821380FDB4
:102A90006BC083E50E94FF1D0E94701E2FEF81EE28
:102AA00094E0215080409040E1F700C0000083E5B1
:102AB000E5CF8438A1F40E94821382FD55C087E4DB
:102AC0000E94FF1D0E94701E2FEF81EE94E02150A6
:102AD00080409040E1F700C0000087E4CFCF8CEF4A
:102AE0008C0F813A90F46C2F80910A0190910B0128
:102AF0000E949A1F882329F08C2F0E94061E0E9494
:102B0000701E8C2F0E94FF1DBBCF80E28C0F88307F
:102B100048F4C77081E001C0880FCA95EAF70E94A7
:102B2000271EAECFEBE5EC0FE33040F4F0E0ED55BF
:102B3000FE4F808190E0CF910C94B613E8E5EC0F46
:102B4000E73150F4F0E0EE0FFF1FEB58FE4F8081AD
:102B50009181CF910C94CC13C03F30F08C2F0E9408
:102B6000C009CF910C94AB0ACF910895882309F442
:102B700052C0823871F40E94821381FF4CC089E3F5
:102B80000E94FF1D0E94701E89E30E94061E0C9485
:102B9000701E833859F40E94821380FF3CC083E585
:102BA0000E94FF1D0E94701E83E5EFCF843859F408
:102BB0000E94821382FF2FC087E40E94FF1D0E94A3
:102BC000701E87E4E2CF9CEF980F913AF0F290E20A
:102BD000980F983050F4877091E001C0990F8A9552
:102BE000EAF7892F0E942D1ED2CF9BE5980F9330D4
:102BF00020F490E080E00C94B61398E5980F97319C
:102C000020F490E080E00C94CC13803F20F00E94F0
:102C1000280A0C94AB0A08951F93CF93DF93182FC3
:102C2000EB010E942415209731F4812FDF91CF9181
:102C30001F910C94B6158FE99FE00197F1F700C042
:102C400000002197F0CF70E060E0893311F460E577
:102C500070E00C940C16882321F00E94271E0C941F
:102C6000701E0895882321F00E942D1E0C94701E62
:102C70000895BF92CF92DF92EF92FF920F931F932E
:102C8000CF93DF936C01D62FC72FFC0112810581F2
:102C900002950F700E941D1EE82E8823A1F0E12EE0
:102CA000112389F08C2F807F803429F080E28D0FF2
:102CB000E12C883040F082E00E94BB1E0E941D1E65
:102CC00091E0E82EE926BC2EB2949FE0B922EB2DCC
:102CD000F0E0E758F64D0C94FC280C2F0F70C07FE5
:102CE00011F00295007F1123A9F0002359F080E232
:102CF0008D0F883010F0D11109C0802F0E94271E3F
:102D00000E94701E8D2F0E94241514C0802F0E94D7
:102D1000371EF6CF8D2F0E94B615002359F080E2A2
:102D20008D0F883010F0D1112CC0802F0E942D1EE5
:102D30000E94701E2B2D2850330B2430310520F4B7
:102D40000E9482130E94FF05EE2009F4A0C10E9498
:102D5000191E80FD9CC1F60112820E94131E0E9462
:102D6000A01CC6010E9468180E94131EDF91CF911B
:102D70001F910F91FF90EF90DF90CF90BF900C9438
:102D8000C11C802F0E943D1ED3CFFC2FFF70FF2E51
:102D9000C07FC03219F0F29480EFF822DD2369F091
:102DA000D13049F1112391F1002351F1F6018581D0
:102DB00080FFA8CF8F70858323C0112381F001117C
:102DC00006C00E94571E8F290E942B16B3CF0130D8
:102DD000C1F70E94571E8F290E945D1EABCF0111C3
:102DE00006C00E94661E8F2D0E943216A3CF0130AE
:102DF00009F4A0CFF6CF112329F0063008F09ACFBE
:102E00008F2DE2CF053008F095CFEDCF002359F399
:102E1000D93349F4FFEF27EE33E0F1502040304042
:102E2000E1F700C000008D2F0E94B61583CF8C2FD4
:102E300086958695837069F0813009F07BCF8D2F60
:102E40009C2F9370111102C090E080E00E94CC137F
:102E500071CF8D2F9C2F9370111102C090E080E0F4
:102E60000E94B61367CF8D2F112339F00E94C0093D
:102E70000E94AB0A0E94AB0A5DCF0E94280AFACFDB
:102E80008C2F837009F041C0111154CF4D2F429502
:102E900046954770440F440F0D2F0F7010E030E03F
:102EA00020E0042E04C0000F111F221F331F0A94BC
:102EB000D2F760E070E0CB01D4FF0FC06FE070E0AC
:102EC00080E090E004C0660F771F881F991F4A9525
:102ED000D2F76095709580959095C695C695C3700C
:102EE000602B712B822B932BC23049F058F4C130E8
:102EF00019F00E94521C1ECF0E94401C1BCF0E9442
:102F0000641C18CF0E943E1C15CF8695112311F02A
:102F10008C2F8170882309F40DCF4D2F4295469553
:102F20004770440F440F0D2F0F7010E030E020E089
:102F3000042E04C0000F111F221F331F0A94D2F762
:102F400060E070E0CB01D4FF0FC06FE070E080E084
:102F500090E004C0660F771F881F991F4A95D2F72B
:102F60006095709580959095C695C695C370602BB9
:102F7000712B822B932BC23049F058F4C13019F0D9
:102F80000E94171DD7CE0E94051DD4CE0E94291D78
:102F9000D1CE0E947A1CCECECF70112329F08C2F77
:102FA0000E94A01C8D2F10CF8D2F0E9432168C2FC7
:102FB0000E94C11CBFCED23F89F160F4D03FC9F05E
:102FC000D13F29F1112309F442C001119BCE8C2F6E
:102FD0008F7121C0D33F39F1D43FA1F7112369F19B
:102FE000CF718C2F0E94A01C63E08C2F0E94A61E24
:102FF000A1CE112341F0053008F09CCE8C2F8F71AB
:103000000E94E41C97CE063008F094CEF7CF8C2FA8
:103010008F71112369F20E94A01C8CCE8C2F8F71AE
:103020001123C9F3C5CF112329F08C2F8F710E9472
:103030008B1C80CE0E94861C7DCE81E00E94BB1E30
:10304000023008F477CE82E00E94BB1E73CE0023CC
:1030500059F0D93309F0E7CE8FEF97EEE3E08150D6
:103060009040E040E1F7DDCE8C2F8F71A1CF4C2F47
:103070004F706D2FC6010E9407060E94B61B5ACEE4
:103080004C2F4F706D2FC6010E940A0653CEDF9160
:10309000CF911F910F91FF90EF90DF90CF90BF9055
:1030A00008950F931F93CF93DF93EC01688179818B
:1030B0008A810E94DB1D8C010E943B1D0E943D1CE9
:1030C000B801CE01DF91CF911F910F910C94391669
:1030D000CF93DF93EC018B819C81892B29F0888130
:1030E000998189238F3F59F4DF91CF910895CE01C3
:1030F0000E945118CE01DF91CF910C945804CE015B
:103100000E94E5048111F3CF0E941D1E882361F304
:103110008A81882349F382E0DF91CF910C94BB1E12
:1031200090E080E00E94B61390E080E00E94CC1313
:103130000E94441E0E94541E0E94701E0E94D20BC8
:103140000C94AB0A0E940D1E0C9490180E94341E21
:103150000C94A218E92FE295EF70E250EE3070F473
:10316000F0E0E757F64D0C94FC28803F19F020F46E
:10317000883E20F481E00895843FE1F380E00895E3
:10318000883EC0F3813FD1F7F5CF93FB882780F9C4
:1031900008950E94D11D0C94AA18CF93DF9300D0FC
:1031A00000D00F92CDB7DEB70F900F900F900F9019
:1031B0000F90DF91CF910895CF93DF9300D000D08F
:1031C00000D0CDB7DEB726960FB6F894DEBF0FBE9F
:1031D000CDBFDF91CF9108951F93CF93DF93C0911F
:1031E000F10116E08091F2018C1304C0DF91CF91C0
:1031F0001F910895D0E01C9FF0011D9FF00D112438
:10320000ED50FE4F408151816281738184819581AF
:103210000E94DC182196C770E5CF4091230250919F
:1032200024026091250270912602809127029091DC
:1032300028020C94DC181F93CF93DF93809128020F
:10324000807FA9F480912502882389F08091F10183
:10325000C091F2016091230270912402A091260294
:10326000B0912702D62FD72316E0C81304C0DF91F0
:10327000CF911F91089590E0109711F0DF3F19F45E
:1032800001968770F2CF189F9001199F300D11247D
:10329000F901ED50FE4F41814713F2CF40814613B3
:1032A000EFCF42814111ECCF438154814A1B5B0B2C
:1032B000483C510528F7809128028F7080618093E7
:1032C0002802F901E850FE4F80818F708061808371
:1032D00083E292E00E946818DF91CF911F910C94D5
:1032E000EC18AF92BF92CF92DF92EF92FF920F93C2
:1032F0001F93CF93DF93CDB7DEB761970FB6F894E6
:10330000DEBF0FBECDBF8C0185E0F801DE011D964A
:1033100001900D928A95E1F7F80140815181E28098
:1033200083E2C82E82E0D82E609126027091270297
:103330006115710509F461C1909123022091240265
:10334000892F82238F3F09F458C1A380B480F09065
:103350002502F501E61BF70BFF2009F4FCC0809164
:103360002802382F307FE83CF10508F0B2C0311157
:1033700079C0FE2C251323C0941321C0E1101FC077
:103380008F708061809328020E940D19C6010E94EF
:10339000681880912802F80185838F2D61960FB6F9
:1033A000F894DEBF0FBECDBFDF91CF911F910F917B
:1033B000FF90EF90DF90CF90BF90AF900895AB2833
:1033C00029F0842F85238F3F09F033C180E0F82F47
:1033D000F170DF2E80FF3CC08091F1012091F2015D
:1033E00036E0821315C04D875E878D859E850E94CD
:1033F000D11D292F22952F702230F0F0243018F59E
:103400009F70F1F0F8019581907FD1F4D12C1EC00E
:1034100090E0389FF001399FF00D1124ED50FE4FE0
:103420006181651306C06081641303C062816E11FF
:103430000FC001968770D5CF9F7011F0882331F3AC
:10344000805E883018F3C8010E946818FD2CA5CF53
:10345000EE2009F4A2CF8091280281608093280297
:10346000F12C9BCF251306C0941304C0F801EE2065
:1034700009F48DC04D875E878D859E850E94C91891
:10348000882319F1EE2009F180912802803270F032
:10349000209123023091240238872F831986BB861E
:1034A000AA868C87CE0107960E94681886E0F801EC
:1034B000A3E2B2E001900D928A95E1F70E941B19F8
:1034C0000E940D19FF24F39468CFC8010E94681868
:1034D000F9CF311113C07A2DB98AA88A6E2D898946
:1034E0000E94CD1883E292E00E94681886E0F601FF
:1034F00011928A95E9F70E940D19B2CF25130FC0DA
:1035000094130DC0E1100BC0F8018583C8010E941F
:10351000681886E0F60111928A95E9F73ECF4D874B
:103520005E878D859E850E94C918882371F2EE20E2
:1035300061F280912802803208F4B8CF20912302F2
:10354000309124023A8329831B82BD82AC828E8310
:10355000CE010196A9CFE83CF10508F041C0FE2C50
:10356000EE2009F4B2CF25132AC0941328C080910D
:10357000280280FD1BC0982F907FC1F0F801858341
:10358000903F31F0982F907F905F8F70892B8583CB
:10359000C8010E94681886E0F801A3E2B2E0019039
:1035A0000D928A95E1F70E940D19F7CE86E0F80199
:1035B000A3E2B2E001900D928A95E1F7EECE4D873D
:1035C0005E878D859E850E94C91881116FCF80917D
:1035D0002802816080932802C8010E946818DDCE0D
:1035E0007A2DB98AA88A6E2D89890E94CD1886E025
:1035F000F60111928A95E9F7D6CFEE2009F465CF4E
:103600004D875E878D859E850E94C918F82E882378
:1036100009F45BCF86E0F801A3E2B2E001900D92DD
:103620008A95E1F783E292E00E941F150E941B1920
:10363000BACF81E08E25CBCE1F93CF93DF93CDB74A
:10364000DEB72C970FB6F894DEBF0FBECDBF4F8309
:10365000588769877A878B879C87CE0107960E9457
:103660007119882369F08A859B85892B39F04F81F0
:103670005885842F85238F3F09F071C016E05FC005
:1036800086E0FE013796DE01119601900D928A9533
:10369000E1F78A859B85892B89F38F81988589231A
:1036A0008F3F61F32091F20130E0C90101968770EC
:1036B00099274091F1014817190671F40E94A61844
:1036C0001092F2011092F10186E0E3E2F2E0DF01F4
:1036D0001D928A95E9F7D2CF96E0929FD001939FF1
:1036E000B00D1124AD50BE4FFE01319601900D92E8
:1036F0009A95E1F78093F2010E94EC18BFCF819F69
:10370000C00111248D509E4F0E9471198823E9F049
:10371000E091F1011E9FF0011124ED50FE4F408118
:10372000518162817381848195810E94DC1880912E
:10373000F10190E00196877099278093F1018091C3
:10374000F1019091F2018913DACF2C960FB6F8941B
:10375000DEBF0FBECDBFDF91CF911F910895698568
:103760007A858B859C850E94DC1888CFEF92FF922A
:103770000F931F93CF93DF938C01892B81F0F12C52
:10378000EE24E394E8012196F8018491843770F4E3
:10379000843008F05FC08130B1F08230A1F1DF9158
:1037A000CF911F910F91FF90EF900895853709F405
:1037B0004CC008F43DC09CE7980F903780F78F7796
:1037C0000E94B61549C00E5F1F4FFE01849190E222
:1037D000980F983060F48770FE2D01C0FF0F8A9516
:1037E000EAF78F2F0E94471E0E94701E02C00E949F
:1037F00024158F2D815030F2EFE9FFE03197F1F77A
:1038000000C00000F7CF0E5F1F4FFE01849190E2D1
:10381000980F983050F48770FE2D01C0FF0F8A95E5
:10382000EAF78F2F0E944D1EDFCF0E94B615E1CF21
:103830000E5F1F4FFE01C491C150D8F28FE99FE087
:103840000197F1F700C00000F7CF0E5F1F4FFE0198
:10385000F490CFCF0E9424158E01CBCF08950C9405
:103860002E1C0E942F1C60935F0270936002809355
:103870006102909362020C94901808950C94311C8C
:103880000F931F9300915F021091600220916102DB
:1038900030916202602B712B822B932B1F910F9121
:1038A0000C94311C0F931F9300915F0210916002E2
:1038B000209161023091620260237123822393235D
:1038C0001F910F910C94311C0F931F9300915F0275
:1038D000109160022091610230916202602771278D
:1038E000822793271F910F910C94311C0C942E1C4E
:1038F0000C94761C0E94781C60935B0270935C02AF
:1039000080935D0290935E020C94901860E070E0EA
:10391000CB010C947A1C0F931F9341E050E060E0C0
:1039200070E08A019B0104C0000F111F221F331F8A
:103930008A95D2F7C901B8011F910F910C947A1C96
:103940000F931F9341E050E060E070E004C0440F2B
:10395000551F661F771F8A95D2F780915B02909161
:103960005C02A0915D02B0915E028A019B01082B6E
:10397000192B2A2B3B2BC901B8011F910F910C94D5
:103980007A1C0F931F9341E050E060E070E004C0A8
:10399000440F551F661F771F8A95D2F7CB01BA01D6
:1039A000609570958095909500915B0210915C02F6
:1039B00020915D0230915E02602371238223932364
:1039C0001F910F910C947A1C0F931F9341E050E0CC
:1039D00060E070E004C0440F551F661F771F8A9592
:1039E000D2F780915B0290915C02A0915D02B09150
:1039F0005E028A019B01082719272A273B27C90154
:103A0000B8011F910F910C947A1C0F931F93009192
:103A10005B0210915C0220915D0230915E02602B8E
:103A2000712B822B932B1F910F910C947A1C0F9367
:103A30001F9300915B0210915C0220915D02309116
:103A40005E0260237123822393231F910F910C94B4
:103A50007A1C0F931F9300915B0210915C022091DE
:103A60005D0230915E0260277127822793271F91A4
:103A70000F910C947A1C08959295907F890F982F3E
:103A8000977041E001C0440F9A95EAF786958695B4
:103A9000869595E0899FF0011124E75DFD4F30E0A8
:103AA00020E070E05191DF011197CB01022E02C09E
:103AB000969587950A94E2F78170819585278423EE
:103AC00085278C932F5F3F4F2530310559F7089597
:103AD0009295907F890F982F9770869586958695F9
:103AE00025E0829FF0011124E75DFD4F50E040E0AA
:103AF00080E0219130E0092E02C0369527950A9486
:103B0000E2F721703327042E01C0220F0A94EAF74E
:103B1000822B4F5F5F4F4530510559F70895BF9293
:103B2000CF92DF92EF92FF920F931F93CF93DF9389
:103B30008C01C0905B02D0905C02E0905D02F0903E
:103B40005E0280915F0290916002A0916102B0914B
:103B50006202C82AD92AEA2AFB2ACFE1D0E0BC2E89
:103B6000D701C6010C2E04C0B695A79597958795E9
:103B70000A94D2F780FD0EC0219788F7B12C8B2DC7
:103B8000DF91CF911F910F91FF90EF90DF90CF9039
:103B9000BF900895B8018C2F0E941306019761F31E
:103BA000EECFCF93DF93EC010E948F1DBE01DF911A
:103BB000CF910C9413061F93CF93DF93EB01909159
:103BC000F001992331F0CB01DF91CF911F910C943B
:103BD000D11D882379F0CB010E948F1D182F682FEB
:103BE000CE010E943C1DBE01812FDF91CF911F911C
:103BF0000C941306CB010E94681D182FF4CF682F78
:103C000080910A0190910B010C941A20682F8091E9
:103C10000A0190910B010C94252080910A0190914A
:103C20000B010C94302080916302859585958595D4
:103C30000895809163028770089590916302977050
:103C400081E009F480E008958091870208959091C1
:103C50008702892B8093870208958095909187022F
:103C60009823909387020895109287020895909167
:103C70008602892B80938602089580959091860212
:103C80009823909386020895109286020895909149
:103C90008502892B809385020895809590918502F5
:103CA000982390938502089510928502089580913B
:103CB0006402089508950C945A1E90916402981716
:103CC00021F0809364020C945B1E0895809164023D
:103CD000882329F01092640280E00C945B1E089502
:103CE000E0910A01F0910B01809187028083E091BD
:103CF0000A01F0910B01808190918602892B8083CB
:103D0000E0910A01F0910B01808190918502892B4D
:103D1000808390916402992381F0E0910A01F091EF
:103D20000B018081892B808380910A0190910B0186
:103D30000E94861F81110E94661E80910A01909147
:103D40000B010C948E1308950C94A31E98E0899F88
:103D500090011124622B609363020E94A01C809149
:103D600063028595859585950C94A41E1092630237
:103D700080E00C94A41E9091630280958923809327
:103D80006302282F277071F4282F082E000C330BA4
:103D90009217130639F08595859585950E94C11C6B
:103DA0000C94B61E089580E008956FEF7FEF90E0C9
:103DB00080E00C94592990E080E00E94352921E0B0
:103DC0008B3E9E4F09F020E0822F089582E090E024
:103DD0000C942D2983E090E00C942D29CF9384E05E
:103DE00090E00E942D29C82F81E290E00E942D29A9
:103DF000982F8C2FCF910895CF93C92F682F84E0EF
:103E000090E00E943B296C2F81E290E0CF910C94CE
:103E10003B29AB01BC018FE090E00C944D29AB0134
:103E2000BC0183E190E00C944D2960E070E0CB018F
:103E30000C940F1F60E070E0CB010E94091F0C94EE
:103E4000151F6BEE7EEF90E080E00E94592960E044
:103E500082E090E00E943B2960E083E090E00E94D5
:103E60003B2910925F021092600210926102109240
:103E7000620260E084E090E00E943B2960E081E221
:103E800090E00E943B2960E085E090E00E943B29A1
:103E900060E086E090E00E943B296FEF87E090E0D1
:103EA0000E943B2940E050E0BA0188E090E00E9487
:103EB0004D2960E08DE090E00E943B2940E050E019
:103EC000BA0188E190E00E944D2960E087E190E02E
:103ED0000E943B2940E050E0BA018CE190E00E9452
:103EE0004D2960E080E290E00E943B2940E050E0F4
:103EF000BA0188E190E00E944D290C941A1F0C949D
:103F0000211F682F8EE090E00C943B29FC01329633
:103F100080911601882321F08091C6029EE187FFDF
:103F200096E080E0915008F4089521912223D1F386
:103F30008F5FF8CF662301F1209116012223F1F063
:103F40002091C60227FF1AC0462F469546954695F2
:103F50004E3190F4677021E030E002C0220F331F31
:103F60006A95E2F7840F911DFC01828190E028237D
:103F7000392381E0232B69F480E00895FC01329617
:103F800008962191261721F0E817F907D1F7F4CF09
:103F900081E008959C01FC0132969FEF80E0419101
:103FA000461751F09F3F19F4411101C0982F8F5FC0
:103FB0008630A9F79F3F09F40895290F311D97FD19
:103FC0003A95F90162830895FC0132960896219191
:103FD000261303C0DF0111971C92E817F907B9F700
:103FE0000895E62FE695E695E695EE3168F4E80F3C
:103FF000F92FF11D677021E030E001C0220F6A95B2
:10400000EAF78281822B82830895E62FE695E69572
:10401000E695EE3170F4E80FF92FF11D677021E09D
:1040200030E001C0220F6A95EAF7209582812823AB
:104030002283089520911601222329F02091C6029F
:1040400027FD0C94F11F0C94CA1F20911601222306
:1040500029F02091C60227FD0C9405200C94E41F42
:10406000FC01329680911601882351F08091C6029E
:1040700087FF06C08EE1DF011D928A95E9F708955A
:1040800086E0F9CF089508950C9443208091CC02E6
:10409000843049F10E94442080E00E94FF05109284
:1040A000890288E190E020E40FB6F894A895809307
:1040B00060000FBE2093600083B7817F846083BF60
:1040C00083B7816083BF7894889583B78E7F83BFE1
:1040D0000FB6F894A8958091600088618093600085
:1040E000109260000FBE08950895CF930E94422061
:1040F0000E947F080E947420C0E08C2F0E94080854
:10410000892B31F4CF5FC530C1F780E0CF9108959E
:1041100081E0FCCF08950C948A200E94A6180E948A
:1041200082130E94FF050C948B201F921FB61F92D2
:1041300011248F939F93AF93BF9380918902811134
:1041400013C08091C2029091C302A091C402B091A9
:10415000C5024196A11DB11D8093C2029093C30276
:10416000A093C402B093C502BF91AF919F918F916C
:104170001F901FBE1F90189582E084BD93E095BDEF
:104180009AEF97BD80936E0008952FB7F8948091B1
:10419000C2029091C302A091C402B091C5022FBF88
:1041A00008952FB7F8946091C2027091C302809174
:1041B000C4029091C5022FBF08959C014FB7F89497
:1041C0008091C2029091C302A091C402B091C50235
:1041D0004FBF821B930B089578941F921FB61F92B6
:1041E00011248F939F93AF93BF938091C2029091BC
:1041F000C302A091C402B091C5020196A11DB11DD8
:104200008093C2029093C302A093C402B093C502EC
:10421000BF91AF919F918F911F901FBE1F901895D6
:1042200081E08093E00080E28093D8001092C90082
:104230008FE19EE40197F1F700C0000087E090EB6A
:10424000DC018093D5029093D602A093D702B0935D
:10425000D80288E19CE00FB6F894A895809360009E
:104260000FBE90936000FFCF9093B7018093B6018B
:1042700008950C94670C0E947F088FE39CE90197D6
:10428000F1F700C000000E947F0880E00E9408084B
:1042900080FF04C00E9439210C94102108950E94CF
:1042A000DB1E811102C00E947F1F0E94E61E8093C8
:1042B00088020E94EE1E9093C7028093C6020E945D
:1042C000EA1E682F70E090E080E00E943E1C609142
:1042D0005B0270915C0280915D0290915E020C9491
:1042E000781C8091AA020895CF93DF9300D00F929B
:1042F000CDB7DEB79091CC02943011F589837B83E2
:104300006A839093E9008FEF9091E800815095FDCA
:1043100006C095ED9A95F1F700008111F5CF8091D7
:10432000E80085FF0DC050E040E063E070E0CE01A2
:1043300001960E9408248091E8008E778093E8001F
:104340000F900F900F90DF91CF910895BC0184E002
:104350000C947421BC0183E00C9474219C0184E0D2
:104360008093E9009FEF8091E800915085FD06C0A1
:1043700085ED8A95F1F700009111F5CF8091E80065
:1043800085FF0CC050E040E066E070E0C9010E948B
:1043900008248091E8008E778093E8000895CF93F9
:1043A000DF93EC01809116018823B1F18091C60260
:1043B00087FF32C060E284E08093E9008FEF909144
:1043C000E800815095FD06C095ED9A95F1F7000043
:1043D0008111F5CF8091E80085FF1BC08091160107
:1043E00070E050E040E0811104C050E040E068E03F
:1043F00070E0CE010E9408248091E8008E778093BF
:10440000E80080E2FE01AAE8B2E001900D928A95F0
:10441000E1F7DF91CF91089568E081E0CDCFCF93B0
:10442000FC01603221F58091CC02843001F5C0910D
:10443000E900CF702091EC00922F917020FD90E860
:10444000C92B82E08093E9008091E80080FF0CC0D6
:1044500050E040E060E270E0CF010E9408248091CB
:10446000E8008E778093E800CF70C093E900CF9189
:1044700008958091CB02811109C00E94E7250E9416
:1044800044268091E20084608093E20008951092B7
:10449000CB02089508950895089542E061EC81E00B
:1044A0000E94632542E261EC84E00E94632542E2BF
:1044B00061EC82E00E94632542E260EC83E00C94B0
:1044C00063258091CE02833009F461C030F48130DD
:1044D000D1F1823009F49DC008958A3009F489C071
:1044E0008B3009F46FC0893009F050C08091CD0243
:1044F000813209F04BC08091D1029091D202009795
:1045000019F0029709F042C08091E800877F8093FC
:10451000E8008091E80082FF35C09091F30080911F
:10452000F200029729F48091F1008B7F813021F411
:104530008091F1008093AA028091E8008B778093AC
:10454000E8000C9497258091CD02813AF9F480918E
:10455000E800877F8093E8008091D1029091D20299
:10456000892B61F460E28AE892E070E00E94A62460
:104570008091E8008B778093E800089560E090E0F8
:1045800080E0F3CF8091CC028111C3CF0895809158
:10459000CD02813AD9F78091D1029091D202892B34
:1045A000A9F78091E800877F8093E8008091E80078
:1045B00080FFFCCF809116018093F1008091E8008C
:1045C0008E77BDCF8091CD02813201F78091D102EB
:1045D0009091D202892BD1F68091E800877F809359
:1045E000E8000E9497258091CF02809316010C94D9
:1045F000A6188091CD02813249F68091E800877F2C
:104600008093E8000E9497258091D0028093AB02AE
:1046100008958091CD02813A09F0B8CF8091E800E9
:10462000877F8093E8008091E80080FFFCCF809135
:10463000AB02C2CFCDB7DEB7A0970FB6F894DEBFFE
:104640000FBECDBF84B7877F84BF0FB6F894A895FF
:1046500080916000886180936000109260000FBEBE
:1046600080E890E00FB6F894809361009093610029
:104670000FBE0E9416140E94E7250E9444268091D6
:10468000E20084608093E20078940E94CD280E942A
:1046900026148CE091E00E947D1313E08091CC02FF
:1046A0008530C9F00E9432148091CC028430D1F060
:1046B0000E9424140E942514F1CF0E94462080916C
:1046C000CA02882341F00E947520882321F00E94AD
:1046D000F2230E94A6188091CC02853071F30E94CB
:1046E0008D20E0CF1093E9008091E80082FFE0CFB9
:1046F0008091E80090E085FF09C050E040E060E272
:1047000070E0CE0101960E94572491E08091E8006C
:104710008B778093E800992359F260E2CE010196ED
:104720000E94C90CC5CF0C949523292F3327233021
:10473000310521F168F42130310509F449C02230F6
:10474000310509F44AC090E080E030E020E029C063
:104750002132310581F122323105A9F7633071052B
:1047600090F7FB01EE0FFF1FE755FE4F20813181CF
:104770006A557E4FFB01808190E013C099278130FC
:10478000910599F0009741F08230910589F00397E7
:10479000D1F6E4ECF5E002C0E4E0F6E0849190E0CC
:1047A0009F01FA01318320830895E0EFF5E0F6CF11
:1047B000E2EEF5E0F3CF6330710528F6660F771F60
:1047C000FB01E155FE4F2081318189E090E0E9CF86
:1047D00082E190E023E636E0E4CF8BE590E028E04C
:1047E00036E0DFCF80E189BD82E189BD09B400FEFA
:1047F000FDCF8091D8008F7D8093D8008091E0001C
:1048000082608093E0008091E00081FDFCCF0895FC
:10481000AF92BF92CF92DF92FF920F931F93CF93ED
:10482000DF936C01EB018A010E94B625F82E8111FD
:1048300023C00115110539F0F80180819181C81B51
:10484000D90BC80ED91EB12CA12C2097A9F08091AC
:10485000E80085FD22C08091E8008E778093E80013
:1048600001151105A1F0F80180819181A80EB91EF2
:10487000B182A08285E0F82E8F2DDF91CF911F911C
:104880000F91FF90DF90CF90BF90AF9008950E945E
:10489000B6258823D1F2F82EEFCFF60181916F0172
:1048A0008093F1002197FFEFAF1ABF0ACECFAF92EE
:1048B000BF92CF92DF92FF920F931F93CF93DF931C
:1048C0006C01EB018A010E94B625F82E811123C0EC
:1048D0000115110539F0F80180819181C81BD90BB0
:1048E000C80ED91EB12CA12C2097A9F08091E80008
:1048F00085FD22C08091E8008B778093E800011548
:104900001105A1F0F80180819181A80EB91EB18234
:10491000A08285E0F82E8F2DDF91CF911F910F910E
:10492000FF90DF90CF90BF90AF9008950E94B62582
:104930008823D1F2F82EEFCF8091F100F601819318
:104940006F012197FFEFAF1ABF0ACECFFC01809114
:10495000D3029091D40286179707A0F061157105D4
:1049600029F49091E8009E779093E80090E061151B
:10497000710551F4911108C08091E80082FF34C0A4
:1049800080E00895BC01F2CF8091CC028823C1F170
:104990008530C1F18091E80083FD30C08091E8004E
:1049A00082FDEACF8091E80080FFE1CF8091F300A3
:1049B0002091F200382F6115710519F0283031056A
:1049C00058F091E02830310509F090E02091E8009E
:1049D0002E772093E800CBCF81918093F100615036
:1049E00071092F5F3F4FE7CF8091CC02882341F0C0
:1049F000853041F08091E80083FFBECF81E00895CB
:104A000082E0089583E00895FC018091D3029091A3
:104A1000D40286179707A0F06115710529F48091DB
:104A2000E8008E778093E80090E06115710551F4FD
:104A3000911108C08091E80082FF35C080E00895A0
:104A4000BC01F2CF8091CC028823C9F18530C9F135
:104A50008091E80083FD31C08091E80082FDEACFBB
:104A60008091E80080FFE1CF8091F3002091F20077
:104A7000382F6115710519F02830310558F091E093
:104A80002830310509F090E08091E8008E7780931E
:104A9000E800CBCF84918093F10031966150710989
:104AA0002F5F3F4FE6CF8091CC02882341F08530C5
:104AB00041F08091E80083FFBDCF81E0089582E05E
:104AC000089583E00895982F973028F08F70809391
:104AD000E90081E008959093E900242F762F50E0BB
:104AE000981731F07091EC002091ED005091F0009A
:104AF00021FD02C09F5FE8CF3091EB003E7F3093F5
:104B0000EB003091ED003D7F3093ED003091EB00F4
:104B100031603093EB007093EC002093ED005093E4
:104B2000F0002091EE0027FDE5CF80E00895809110
:104B3000CD0287FF13C08091E80082FF06C08091FC
:104B4000E8008B778093E80004C08091CC0281114B
:104B5000F2CF08958091CC028823D9F38091E800A8
:104B600080FFF8CF8091E8008E77ECCF2091E400B1
:104B70003091E50095E6A9012091EC00822F81702B
:104B800020FF06C08091E80080FF06C080E0089505
:104B90002091E80022FD1AC08091CC02882389F080
:104BA000853089F08091EB0085FD0FC02091E400F5
:104BB0003091E50042175307F9F29150E1F684E095
:104BC000089582E0089583E0089581E008950E94A9
:104BD00055260E945D26E0EEF0E0808181608083B2
:104BE000E8EDF0E080818F77808319BCA7EDB0E01D
:104BF0008C918E7F8C9380818F7E80831092CB02EC
:104C000008950F931F93CF93DF930E9455260E9420
:104C10005D26C8EDD0E088818F77888388818068A1
:104C2000888388818F7D888319BC1092CC02109272
:104C3000C8021092CA021092C90200EE10E0F801F8
:104C400080818B7F808388818160888342E060E0FF
:104C500080E00E946325E1EEF0E080818E7F80831A
:104C6000E2EEF0E0808181608083808188608083D3
:104C7000F80180818E7F8083888180618883DF91C5
:104C8000CF911F910F910895E8EDF0E080818F7E24
:104C90008083E7EDF0E080818160808384E082BFE3
:104CA00081E08093CB020C940126E8EDF0E0808156
:104CB0008E7F80831092E20008951092DA001092A5
:104CC000E10008951F920F920FB60F9211242F93B7
:104CD0003F934F935F936F937F938F939F93AF9384
:104CE000BF93EF93FF938091E10082FF0BC080910F
:104CF000E20082FF07C08091E1008B7F8093E1009A
:104D00000E94CC288091DA0080FF19C08091D800E1
:104D100080FF15C08091DA008E7F8093DA00809149
:104D2000D90080FF96C080E189BD82E189BD09B4C8
:104D300000FEFDCF81E08093CC020E943922809159
:104D4000E10080FF19C08091E20080FF15C08091D2
:104D5000E2008E7F8093E2008091E2008061809388
:104D6000E2008091D80080628093D80019BC85E071
:104D70008093CC020E944B228091E10084FF2BC0E3
:104D80008091E20084FF27C080E189BD82E189BD76
:104D900089B5982F917080FFFBCF8091D8008F7DCF
:104DA0008093D8008091E1008F7E8093E100809114
:104DB000E2008F7E8093E2008091E2008160809328
:104DC000E2008091C802882309F449C084E08093FE
:104DD000CC020E944C228091E10083FF29C0809187
:104DE000E20083FF25C08091E100877F8093E1008E
:104DF00082E08093CC021092C8028091E1008E7F05
:104E00008093E1008091E2008E7F8093E2008091A8
:104E1000E20080618093E20042E060E080E00E9476
:104E200063258091F00088608093F0000E944A2200
:104E3000FF91EF91BF91AF919F918F917F916F9172
:104E40005F914F913F912F910F900FBE0F901F9048
:104E5000189519BC1092CC020E94472270CF809105
:104E6000E30087FD93E09093CC02B3CF1F920F92A3
:104E70000FB60F9211242F933F934F935F936F932D
:104E80007F938F939F93AF93BF93CF93DF93EF93D2
:104E9000FF93D091E900DF708091EC00C82FC170C2
:104EA00080FDC0E81092E9008091F000877F809338
:104EB000F00078940E947A271092E9008091F00027
:104EC00088608093F000CD2BCF70C093E900FF91F4
:104ED000EF91DF91CF91BF91AF919F918F917F9192
:104EE0006F915F914F913F912F910F900FBE0F9057
:104EF0001F9018951F93CF93DF93CDB7DEB7AA9776
:104F00000FB6F894DEBF0FBECDBF8DEC92E02091BE
:104F1000F100FC012193CF01F2E0853D9F07B9F735
:104F20000E9461228091E80083FF1EC18091CD0222
:104F30009091CE029A3008F017C1E92FF0E0E956BF
:104F4000F64D0C94FC28803899F0823809F00CC199
:104F50008091D1028F70873008F006C18093E900FC
:104F60008091EB0085FB882780F91092E90006C04C
:104F70008091C9029091CA02911182609091E800DB
:104F8000977F9093E8008093F1001092F100809158
:104F9000E8008E77E5C0882309F4D3C0823009F099
:104FA000E3C08091CF028111D6C08091D1028F7071
:104FB0002FEF280F263008F0D7C08093E90020910A
:104FC000EB0020FFC8C0933031F48091EB00806289
:104FD0008093EB00C0C09091EB0090619093EB0048
:104FE00021E030E001C0220F8A95EAF72093EA0021
:104FF0001092EA008091EB008860EACF8111B4C082
:105000001091CF021F778091E3008078812B8093ED
:10501000E3008091E800877F8093E8000E94972555
:105020008091E80080FFFCCF8091E300806880934E
:10503000E30082E0111183E08093CC0295C0805898
:10504000823008F091C08091CF029091D0028C3DC7
:1050500023E09207A1F583E08A838AE289834FB730
:10506000F894DE01139620E03EE051E2E32FF0E0F9
:1050700050935700E49120FF03C0E295EF703F5F2B
:10508000EF708E2F90E0EA30C0F0C7968D939D931D
:105090002F5F243159F74FBF8091E800877F8093BD
:1050A000E8006AE270E0CE0101960E94A624809199
:1050B000E8008B778093E80057C0C096E7CF6091F7
:1050C000D1027091D202AE014F5F5F4F0E949323D5
:1050D000BC01892B09F448C09091E800977F909318
:1050E000E80089819A810E940425E1CF8038E1F5AA
:1050F0008091E800877F8093E8008091C8028093C8
:10510000F10045CF811130C09091CF02923060F50F
:105110008091E800877F8093E8009093C8020E9406
:1051200097258091C802882311F084E005C0809102
:10513000E30087FDFACF81E08093CC020E944D22EC
:1051400013C08091CF02813079F481E0933009F06F
:1051500080E08093CA021092E9008091E800877F86
:105160008093E8000E9497258091E80083FF0AC0A1
:105170008091E800877F8093E8008091EB00806257
:105180008093EB00AA960FB6F894DEBF0FBECDBF9A
:10519000DF91CF911F9108950895CF938091CC0214
:1051A0008823A1F0C091E900CF709091EC00892F85
:1051B000817090FD80E8C82B1092E9008091E80092
:1051C00083FD0E947A27CF70C093E900CF910895A4
:1051D00097FB072E16F4009407D077FD09D00E94A4
:1051E000092907FC05D03EF4909581959F4F0895BD
:1051F000709561957F4F0895EE0FFF1F0590F49114
:10520000E02D09946927962769277827872778272B
:105210000895AA1BBB1B51E107C0AA1FBB1FA617FD
:10522000B70710F0A61BB70B881F991F5A95A9F74F
:1052300080959095BC01CD010895FB01DC0102C071
:1052400005900D9241505040D8F70895DC0101C0FF
:105250006D9341505040E0F70895F999FECF92BD0B
:1052600081BDF89A992780B50895A8E1B0E042E0A1
:1052700050E00C946129262FF999FECF92BD81BD93
:10528000F89A019700B4021639F01FBA20BD0FB684
:10529000F894FA9AF99A0FBE08950396272F0E9460
:1052A0003C290E943B29252F0E943C29242F0C9445
:1052B0003C290196272F0E943C290C943B29DC01B4
:1052C000CB01FC01F999FECF06C0F2BDE1BDF89A11
:1052D000319600B40D9241505040B8F70895F894BB
:1052E000FFCF090E2E0E3A0E7E0E9C0EB30EC20E8E
:1052F000DC0E6D166D16C516C516171733179A16E0
:105300009A164017CC17DB17DB1737189A169A1620
:105310004018B518B518BE18BE18C018BE18BE186B
:10532000BE18B518B518C518BE18BE18C518A327DD
:10533000CB27B428CB27B428FE271F28B4287628EB
:025340008228C1
:105342002808641E140A321E010065027121CF2151
:10535200AE21AA21A6210139081AB1BF366007E29F
:1053620000E900EA00B500B600B700CD008301CC29
:10537200008A0192019401210223022402250226BD
:105382000227022A02B300B4006F007000818283F8
:10539200909192939796946766363534F7F0F4F1CC
:1053A20033F6F5953200FF0100010000FFFF000017
:1053B200010001FF00E200E900EA00B500B600B713
:1053C20000CD008301CC008A0192019401210223C5
:1053D2000224022502260227022A02B300B4006F29
:1053E2000070008182834022BC5307750697061A1B
:0653F2000633065306001D
:00000001FF
